:020000040800F2
:10000000481000209D010008E1520008E35200085A
:10001000E5520008E7520008E9520008000000001D
:10002000000000000000000000000000EB5200088B
:10003000ED52000800000000EF520008F3520008E3
:10004000B7010008B7010008B7010008B7010008B0
:10005000B7010008B70100089F3F0008B73F00083C
:10006000CF3F0008E73F0008FF3F00086B3500085E
:1000700071350008773500087D35000883350008A4
:10008000893500088F350008B7010008B70100085E
:10009000B7010008B7010008B701000817400008C1
:1000A000B7010008B7010008B7010008B701000850
:1000B000B7010008B7010008B7010008B701000840
:1000C000B7010008B7010008B7010008B701000830
:1000D000B701000867240008B70100087924000868
:1000E00069400008B7010008B7010008B70100081F
:1000F000B7010008B7010008B701000895350008EE
:10010000B7010008B7010008B7010008B7010008EF
:1001100091240008A9240008B7010008B7010008CD
:100120009B3500089F350008A5350008AB35000851
:10013000B1350008B7010008B7010008B701000891
:10014000B7010008B7010008B7010008B7010008AF
:10015000B7350008BD350008C3350008BD240008C8
:10016000B7010008B7010008B7010008B70100088F
:10017000B7010008B7010008B7010008B70100087F
:10018000B7010008B7010008DFF80CD005F072FDD8
:1001900000480047A7510008481000200648804743
:1001A00006480047FEE7FEE7FEE7FEE7FEE7FEE75C
:1001B000FEE7FEE7FEE7FEE7CF53000889010008EF
:1001C0002849084328490860704730B50F23C27892
:1001D00001780125FAB1244A126801F1E02102F404
:1001E000E062C2F5E062C2F30722C2F10404D34028
:1001F0004278A24084781C401443220181F80024F4
:10020000007800F01F018D404009800000F1E020DF
:10021000C0F8005130BD01F01F0085404809800042
:1002200000F1E020C0F8805130BD104A1140014378
:100230000D48001F016070470B4A121D002911680C
:1002400001D0014300E08143116070474FF0E0218D
:100250000428086903D020F004000861704740F0CA
:100260000400FAE70000FA050CED00E080FFFF1F34
:10027000F848016841F001010160F64A00210832A6
:1002800011600268F44B1A400260031DF34A1A60C1
:10029000F04BF34A84331A60F04A103A1B1D1A607F
:1002A000026822F480220260EA480C300160181DC6
:1002B00001607047E7490022891C0A700870704786
:1002C00002460020510901290CD002290CD0E14935
:1002D0007431096802F01F02012393400B4200D0E1
:1002E00001207047DB49F4E7DA497031F1E718B5CE
:1002F00000204FF4A04400903120FFF7E1FF009967
:10030000491C0091A14201D00028F5D03120FFF70F
:10031000D7FF002800D0012018BDCE4A116821F077
:10032000F80141EAC00010607047CE49086070478C
:10033000C849002270310A700A70012802D00428CE
:1003400001D1052008707047C7490860704741EA2D
:1003500082115A0810B5C54B029C03EB02421143AF
:10036000014341EA0460BB49091D086010BDBD4955
:1003700008667047800140EA0170B6498431086020
:100380007047B84988667047800140EA0160B1490A
:1003900040EA0270883108607047B24908677047C8
:1003A000B049C8647047AB4B08331A68084322F061
:1003B000EC62104318607047A64B08331A68084374
:1003C00022F07842104318607047A24A0832116840
:1003D00021F003010143116070479E480830006816
:1003E00000F00C0070479B4A0832116821F0F001C0
:1003F000014311607047974A0832116821F4E051B7
:10040000014311607047934A0832116821F460413A
:1004100041EAC0001060704770B58E4B0833196810
:10042000934C11F00C0104D06610042903D0082964
:1004300003D004601BE0066019E0864A121D1168B3
:10044000C1F38055116801F03F0115B1B6FBF1F120
:1004500001E0B4FBF1F114681268C4F3881461433D
:10046000C2F30142521C5200B1FBF2F10160196863
:100470000F2202EA11117F4A545C0168E140416099
:100480001C68072505EA9424145D21FA04F48460AD
:100490001B6805EA5333D25CD140C16070BDC0F324
:1004A0000121032908D16B4B08331968724A21F4E2
:1004B000F81102400A431A60664970310A68C0F3B5
:1004C0000B0002430A60704767494439086070476F
:1004D00065494039086070476249C1F85C0170475E
:1004E0005C4A8C32116821F440110143116070475D
:1004F000584A8C32116821F4400101431160704761
:10050000544A8C321168401E21F01F0101431160D2
:100510007047504A8C3211686FF0FF0321F4F85194
:1005200003EB00200843106070474A4A8C32116880
:1005300021F440310143116070475049C1F8E00196
:100540007047444A30320029116801D0014300E06D
:100550008143116070473F4A34320029116801D04D
:10056000014300E08143116070473A4A3832002964
:10057000116801D0014300E0814311607047354AA2
:1005800040320029116801D0014300E0814311602D
:100590007047304A44320029116801D0014300E01D
:1005A0008143116070472B4A10320029116801D035
:1005B000014300E0814311607047264A143200294C
:1005C000116801D0014300E0814311607047214A66
:1005D00018320029116801D0014300E08143116005
:1005E00070471C4A20320029116801D0014300E005
:1005F000814311607047174A24320029116801D0E5
:10060000014300E0814311607047124A50320029D3
:10061000116801D0014300E08143116070470D4A29
:1006200054320029116801D0014300E08143116078
:100630007047084A58320029116801D0014300E090
:10064000814311607047034A60320029116817D056
:10065000014316E000380240FFFFF6EA10300024A4
:100660000030002000004742800E47420000FFFF9C
:100670000024F40000000020FFFCFF0F00104742A0
:10068000814311607047194A0029116801D0014364
:1006900000E081431160704714490C31012808685B
:1006A00003D020F008000860704740F00800FAE727
:1006B0000E4A573A0029117801D0014300E08143E6
:1006C0001170704709481030016841F08071016075
:1006D00070470146054A0020583A12680A4200D085
:1006E000012070470149563908707047643802404C
:1006F000774910B5884206D101210846FFF753FF1C
:10070000002101205BE07349884206D101210220CB
:10071000FFF749FF0021022051E06F49884206D1CE
:1007200001210420FFF73FFF0021042047E06B492F
:10073000884206D101210820FFF735FF002108205B
:100740003DE06749884206D101211020FFF72BFFC9
:100750000021102033E06349884206D10121202086
:10076000FFF721FF0021202029E05F49884206D1C0
:1007700001214020FFF717FF002140201FE05B49C7
:10078000884206D101218020FFF70DFF0021802043
:1007900015E05749884202D1012184150AE05549E4
:1007A000884202D10121441504E0534988420AD10C
:1007B000012104152046FFF7F6FE00212046BDE882
:1007C0001040FFF7F0BE10BDF0B5002201274FF03A
:1007D000030C0B6807FA02F52B40AB422CD10668DC
:1007E00053000CFA03F4A64306600E79D0F800E03B
:1007F0009E4046EA0E0606600E79012E01D0022EBA
:1008000012D18668A64386604E79D0F808E09E40F3
:1008100046EA0E0686604668AE43466045688E79B5
:100820009640B6B235434560C568A543C560CC79EE
:100830009C40C3681C43C460521C102AC9D3F0BD3D
:100840004FF6FF7101600021017141718171C17129
:10085000704708B541F480320092C261C1610099CD
:10086000C161C169C069009008BD024600201269DB
:100870000A4200D001207047006980B270470246EA
:10088000002052690A4200D001207047406980B2BE
:10089000704701837047418370470AB101837047F5
:1008A000418370474161704742694A4042617047E5
:1008B0004B07DB0E9A40C90810B500EB8100016AB6
:1008C0000F249C40A1430162016A1143016210BDE3
:1008D000000002400004024000080240000C0240F8
:1008E000001002400014024000180240001C0240A8
:1008F000002002400024024000280240CD4910B5EB
:10090000884206D101211020FFF775FE002110203A
:1009100020E0C949884202D101214C0429E0C7499D
:10092000884202D101218C0423E0C549884202D1CA
:100930000121CC041DE0C349884202D101210C05EC
:1009400017E0C149884209D101212020FFF753FE59
:1009500000212020BDE81040FFF74DBEBB49884272
:1009600002D101218C0704E0B94988420AD1012152
:1009700044052046FFF735FE2046BDE81040002123
:10098000FFF72FBE10BD7FB50446008A0D46C9880B
:1009900020F4405001432182A08941F20C61884338
:1009A000A9882A8911436A8902431143A181A08A37
:1009B00020F44071A8890843A0826846FFF72CFD07
:1009C0009C48844202D0A048844201D1039800E0B0
:1009D0000298A189090400EBC00101EB001029680D
:1009E00001D5490000E08900B0FBF1F06422B0FBC2
:1009F000F2F109010B096FF018056B4300EB83005E
:100A0000A3891D044FF0320306D503EBC000B0FBF1
:100A1000F2F000F0070005E003EB0010B0FBF2F08D
:100A200000F00F00084320817FBD4FF41651016094
:100A300000218180C18001810C2242818181704727
:100A400010B5028A4C8822F470630A8822438C888D
:100A5000C9880C4322431A43028210BD0021018041
:100A600041808180C18070470029818902D041F492
:100A7000005101E021F4005181817047028B02F4A2
:100A80007F420283028B0A430283704700298189D7
:100A900002D041F4004101E0C1F30E0181817047B1
:100AA0000029818A02D041F4006101E021F4006153
:100AB00081827047C1F30801818070478088C0F34C
:100AC00008007047028A22F00F020282028A0A435B
:100AD000028270470029818902D041F0020101E0C1
:100AE00021F0020181817047828922F400628281B3
:100AF00082890A4382817047028A22F020020282A0
:100B0000028A0A43028270470029018A02D041F416
:100B1000804101E021F4804101827047818941F0E8
:100B20000101818170470029818A02D041F00801CA
:100B300001E021F0080181827047028BD2B202836A
:100B4000028B42EA0121018370470029818A02D089
:100B500041F0200101E021F020018182704700294D
:100B6000818A02D041F0100101E021F01001818260
:100B70007047828A22F004028282828A0A43828239
:100B800070470029818A02D041F0020101E021F082
:100B9000020181827047002A828A01D00A4300E064
:100BA0008A438282704710B5C1F3421301F01F04DB
:100BB0000121A140012B07D0022B07D01430002ABD
:100BC000026805D00A4304E00C30F8E71030F6E77D
:100BD0008A43026010BD0246002012880A4200D0FB
:100BE00001207047C9430180704770B501F01F05AF
:100BF00001260024C1F3421306FA05F2012B0FD09F
:100C0000022B0FD0838A4FEA11210088134206FA83
:100C100001F600EA060001D000B10124204670BDB3
:100C20008389F0E7038AEEE70A0A01219140C9436C
:100C3000018070470010014000440040004800401F
:100C4000004C00400050004000140140007800407B
:100C5000007C0040FE4910B5884206D101210846BB
:100C6000FFF7C9FC002101205BE0B0F1804F09D003
:100C7000F84988420DD101210220FFF7B2FC002182
:100C8000022070E001210846FFF7ABFC00210120A3
:100C900069E0F149884206D101210420FFF7A1FC57
:100CA000002104205FE0ED49884206D1012108209F
:100CB000FFF797FC0021082055E0E949884206D15A
:100CC00001211020FFF78DFC002110204BE0E549A9
:100CD000884206D101212020FFF783FC002120203B
:100CE00041E0E149884206D101210220FFF783FC5F
:100CF0000021022015E0DD49884202D101210C04C7
:100D00000AE0DB49884202D101214C0404E0D949C0
:100D100088420AD101218C042046FFF76CFC002197
:100D20002046BDE81040FFF766BCD349884206D193
:100D300001214020FFF755FC0021402013E0CF495E
:100D4000884206D101218020FFF74BFC0021802042
:100D500009E0CB4988420AD1841501212046FFF7DA
:100D600040FC00212046BDE81040FFF73ABC10BD12
:100D700030B50288B64CBC4DA0420DD0A8420BD075
:100D8000B0F1804F08D0B34B984205D0B24B984297
:100D900002D0B24B984203D122F070034A881A4322
:100DA000AF4B984206D0AF4B984203D022F4407329
:100DB0000A891A4302804A68C2620A880285A042F0
:100DC00001D0A84201D1897A01860121818230BDFA
:100DD0004FF0FF314160002101800181418081722B
:100DE0007047018582827047028822F070020A43B0
:100DF0000280704741627047C1627047406A704725
:100E0000008D70470029018802D041F0020101E005
:100E100021F00201018070470029018802D041F0D1
:100E2000040101E021F004010180704700290188DC
:100E300002D041F0800101E021F080010180704783
:100E4000028822F00802028002880A43028070476A
:100E5000028822F44072028002880A4302807047AE
:100E60000029018802D041F0010101E021F00101D7
:100E70000180704730B5028C22F001020284028C9E
:100E80008388048B22F0020224F073050C882C4323
:100E90008D8915434A882A436D4DA84202D0724D70
:100EA000A8420DD122F00805CA8923F440732A43D1
:100EB00022F004058A882A430D8A1D434B8A2B435E
:100EC0008380048389684163028430BD70B5028CDD
:100ED00022F010020284028C8388048B0D8824F493
:100EE000E6464FF6FF7404EA052535438E8922F065
:100EF000200204EA061616434A8804EA0212324324
:100F0000534EB04202D0584EB04215D122F0800666
:100F1000CA8923F4406304EA0212324322F04006F5
:100F20008A8804EA021232430E8A04EA86061E43C5
:100F30004B8A04EA83033343838005838968816392
:100F4000028470BD70B5028C22F480720284028C1F
:100F50008388848B0D8824F0730425438E894FF693
:100F6000FF7422F4007204EA062616434A8804EA53
:100F700002223243364EB04202D03B4EB04215D12F
:100F800022F40066CA8923F4405304EA0222324361
:100F900022F480668A8804EA022232430E8A04EA36
:100FA00006161E434B8A04EA03133343838085836A
:100FB0008968C163028470BD70B5028C22F48052CE
:100FC0000284058C8288838B0C8823F4E6464FF6D6
:100FD000FF7303EA0424344325F400568D8903EAA1
:100FE000053535434E8803EA06362E43184DA84290
:100FF00002D01D4DA84205D122F480450A8A03EA99
:1010000082122A438280848389680164068470BDC9
:10101000002101804180818081608181C1810182C4
:101020004182704730B50124058C00F118038C40D3
:10103000A543058431B308292CD0091FC1F34E0004
:101040001844016848F6FF731940016001681AE00E
:10105000000001400004004000080040000C004077
:101060000010004000140040000401400040014016
:10107000004401400048014000180040001C0040AE
:101080000020004006E04FF6FF7303EA02221143FE
:10109000016030BD03EB510001684FF68F731940BA
:1010A00001600168F3E74163704781637047C16382
:1010B000704701647047028B22F070020A4302837A
:1010C0007047028B4FF6FF7322F4E04203EA0121DE
:1010D000114301837047828B22F070020A4382839E
:1010E0007047828B4FF6FF7322F4E04203EA01213E
:1010F000114381837047028B22F008020A43028366
:101100007047028B4FF6FF7322F4006203EA01215D
:10111000114301837047828B22F008020A438283C5
:101120007047828B4FF6FF7322F4006203EA0121BD
:10113000114381837047028B22F004020A43028329
:101140007047028B4FF6FF7322F4806203EA01219D
:10115000114301837047828B22F004020A43828389
:101160007047828B4FF6FF7322F4806203EA0121FD
:10117000114381837047028B22F080020A4302836D
:101180007047028B4FF6FF73C2F30E0203EA012190
:10119000114301837047828B22F080020A438283CD
:1011A0007047828B4FF6FF73C2F30E0203EA0121F0
:1011B000114381837047028C22F002020A430284A9
:1011C0007047028C22F008020A4302847047028CA6
:1011D0004FF6FF7322F0200203EA0111114301844C
:1011E0007047028C4FF6FF7322F0800203EA011170
:1011F000114301847047028C4FF6FF7322F4007292
:1012000003EA0121114301847047028C4FF6FF73FA
:1012100022F4006203EA0121114301847047028C29
:101220004FF6FF7322F4005203EA013111430184A7
:10123000704710B50123048C8B409C430484038CBD
:101240008A401343038410BD10B50423048C8B40E3
:101250009C430484038C8A401343038410BD828B17
:1012600022F440628283828B4FF6FF7303EA0121EE
:101270000A4382837047828B22F00C028283828B26
:101280000A4382837047028B22F440620283028BFE
:101290004FF6FF7303EA01210A4302837047F0B55A
:1012A000048C24F010040484078B068C4FF6FF7422
:1012B00004EA011527F4734704EA0331394304EAC9
:1012C00002220A4326F0A001294341F010010283C3
:1012D0000184F0BD028B22F00C020283028B0A43D0
:1012E000028370472DE9F0410C460E884988A28898
:1012F000238905460EB3042E26D0082E2E8C4FF6D9
:10130000FF7028D026F480562E84AF8B2E8C00EAF6
:10131000022200EA013127F473473A4300EA03301E
:10132000104326F420420A4342F48051A8832984C2
:10133000E1882846BDE8F04191E700F062F9E188D4
:101340002846BDE8F041C5E7FFF7A9FFE188284638
:10135000BDE8F04197E726F480762E84AF8B2E8C83
:1013600000EA012100EA0310104327F0F307384395
:1013700026F420620A4342F48071A8832984E1881C
:101380002846BDE8F04176E7002101804180012236
:101390008280C180018170472DE9F0410C46002612
:1013A00049880746012501B90226A288012A00D1F1
:1013B0000225208823890028384610D0FFF76FFFC8
:1013C000E1883846FFF75FFF23892A4631463846D1
:1013D00000F017F9E1883846BDE8F0417AE700F0FF
:1013E00010F9E1883846FFF775FF23892A46314610
:1013F0003846FFF754FFE1883846BDE8F04142E740
:10140000406B7047806B7047C06B7047006C7047D3
:1014100010B50A884B88CC881A438B8823431A431B
:101420000B891A434B8989891A430A43A0F844203F
:1014300010BD0021018041808180C18001814181F6
:1014400081817047002930F8441F02D041F40041E7
:1014500001E0C1F30E01018070470029818802D0AC
:1014600041F0040101E021F004018180704700296E
:10147000818802D041F0010101E021F00101818069
:101480007047002A828901D00A4300E08A438281A2
:1014900070478182704702460020128A0A4200D0BB
:1014A00001207047C9430182704702460020138A19
:1014B00092890B4202EA010202D0002A00D00120E8
:1014C0007047C943018270471143A0F84810704724
:1014D000002A828901D00A4300E08A438281704752
:1014E0000029818802D041F0080101E021F00801C3
:1014F00081807047018921F00701018170470289CD
:1015000022F070020A430281704700B50346FFF7DC
:10151000F6FF188940F00700188100BD70B5164627
:101520000D46602904464FF0010231460AD000F012
:1015300068F829462046FFF7E2FF208940F00700BF
:10154000208170BDFFF7ABFEF3E730B504894FF69D
:10155000FF7505EA03231343E4B20B4323430381DE
:1015600030BD10B50446FFF7F0FF208940F077004A
:10157000208110BD10B50446FFF7E7FF208940F435
:101580008040208110BD828822F070028280828893
:101590000A4382807047028922F007020281028991
:1015A0000A4302817047028922F080020281028987
:1015B0000A430281704770B50589048B068C25F0BB
:1015C00007050D434FF6FC410C4040F201110C435E
:1015D0004FF6FF7101EA031126F022061143314351
:1015E00005810483018470BD0029818802D041F007
:1015F000800101E021F0800181807047A0F8501047
:10160000704770B5048C24F001040484058B048CAD
:101610004FF6FF7606EA0313134325F0F3052B4339
:1016200024F00A020A4342F001010383018470BDE1
:10163000D24910B5884202D101214C050AE0D049B7
:10164000884202D101218C0504E0CE4988420AD1AA
:101650000121CC052046FEF7C4FF2046BDE810401E
:101660000021FEF7BEBF10BD7FB5044680880D4641
:1016700020F03F066846FEF7CFFEC3490298B0FB54
:10168000F1F189B20E43A680228822F00102228065
:10169000BE4B2A689A421BD85200B0FBF2F080B2CF
:1016A000042800D20420491C2184A083208840F013
:1016B0000100208020884FF6F5310840A9886A890A
:1016C000114301432180A8892989084320817FBDD6
:1016D000EB88A3F53F46FF3E0BD002EBC20303EBC2
:1016E0000212B0FBF2F080B240F48040020506D056
:1016F00007E002EB4202B0FBF2F080B2F6E740F006
:1017000001004FF4967251434FF47A72B1FBF2F13B
:1017100040F40040C7E741F2883101600021818038
:101720004BF6FF72C280018141814FF4804181817B
:1017300070470029018802D041F0010101E021F049
:101740000101018070470029818C02D021F0100135
:1017500001E041F0100181847047828C01F00F019B
:1017600022F00F021143818470470029018802D0C2
:1017700041F4807101E021F48071018070470029FB
:10178000018802D041F4007101E021F40071018070
:10179000704712B141F0010101E001F0FE01018248
:1017A00070470029018802D041F4806101E021F4F2
:1017B000806101807047828901F0FE0122F0FE0203
:1017C0001143818170470029818902D041F00101D4
:1017D00001E021F00101818170470029018802D0D8
:1017E00041F0400101E021F04001018070470029F3
:1017F000018802D041F4004101E0C1F30E010180F3
:1018000070470029018803D021F0800101807047D2
:1018100041F08001FAE7B1F5804F818B02D021F4CD
:10182000804101E041F4804181837047B1F5006F50
:10183000018803D021F400610180704741F4006108
:10184000FAE7B1F5005F018803D021F4005101806F
:10185000704741F40051FAE70029018802D041F0B5
:10186000100101E021F010010180704701827047F2
:10187000008AC0B270470029018802D041F480512B
:1018800001E021F4805101807047B1F5006F0188BB
:1018900003D021F400610180704741F40061FAE750
:1018A0000029018802D041F0200101E021F020014F
:1018B00001807047008B000A70470029818802D0A0
:1018C00041F4006101E021F400618180704700294A
:1018D000818802D041F4805101E021F4805181805F
:1018E000704708B508440090008808BD002A828827
:1018F00001D00A4300E08A438280704703460020FB
:101900009A8A1B8B42EA034222F07F42914300D124
:1019100001207047818A008B41EA004121F07F401D
:1019200070470CB50246002000920A0F21F07F415B
:10193000019202D0009A143202E0009A090C183287
:10194000009212680A4200D001200CBDC943818276
:10195000704710B5034600209A884FF4E06404EA0B
:1019600011449B8A224021F07F410B4202D0002A81
:1019700000D0012010BDC94381827047005400404F
:1019800000580040005C004040420F00A08601006B
:1019900010B501210C022046FEF72DFE2046BDE8C1
:1019A00010400021FEF727BE30B54268C84B0C79C5
:1019B0001A400B6842EA0422134343608268C54B15
:1019C0004D791A40D1E9034323438C6844EA450426
:1019D000234313438360C26A097D22F47002491EC7
:1019E000C9B242EA0151C16230BD002101600171FA
:1019F00041718160C1600161012101757047B64B81
:101A000010B5D3F80423B5490A40D0E900142143A6
:101A1000D0E90240044321431143C3F8041310BD2D
:101A20000021016041608160C160704700298168C8
:101A300002D041F0010101E021F001018160704715
:101A40004268A74B1A400A43426070474162826273
:101A50007047426822F01F020A43426070479E4965
:101A60000028D1F8040302D040F4000001E020F483
:101A70000000C1F80403704797490028D1F8040317
:101A800002D040F4800001E020F48000C1F804039B
:101A9000704770B5072609290AD9C568A1F10A045B
:101AA00004EB4404A640B543A3401D43C56007E0D2
:101AB000056901EB4104A640B543A3401D43056100
:101AC0001F23072A09D2446B521E02EB8202934065
:101AD0009C4391400C43446370BD0D2A09D2046BB2
:101AE000D21F02EB820293409C4391400C4304635B
:101AF00070BDC46A0D3A02EB820293409C43914050
:101B00000C43C46270BD816841F0804181607047C0
:101B1000014600208968490000D50120704700294E
:101B2000816802D041F4806101E021F4806181602C
:101B300070470029816802D041F0020101E021F0E4
:101B40000201816070474268491E22F4604242EA05
:101B50004131416070470029416802D041F4006181
:101B600001E021F4006141607047C06C80B27047B1
:101B70005948D0F8080370470029816802D041F421
:101B8000807101E021F480718160704700298168D3
:101B900002D041F4007101E021F4007181607047CE
:101BA0004D490028D1F8040302D040F4005001E070
:101BB00020F40050C1F80403704770B507260929C6
:101BC0000AD9C568A1F10A0404EB4404A640B54350
:101BD000A3401D43C56007E0056901EB4104A64031
:101BE000B543A3401D430561836BC3F30154121B2E
:101BF000921C02EB82021F249440A34391400B43AA
:101C0000836370BD826B491E22F4401242EA015187
:101C10008163704708B508440090026008BD82687F
:101C200022F470220A4382607047826822F44012D4
:101C30000A4382607047816841F480018160704787
:101C4000014600208968490200D50120704700291B
:101C5000416802D041F4806101E021F4806141607B
:101C600070470029416802D041F4805101E021F41D
:101C700080514160704708B50844283000900068E2
:101C800080B208BD01238B4041680AB1194300E0CE
:101C90009943416070470246002012680A4200D012
:101CA00001207047C9430160704730B502460020EB
:101CB00053680C0A01258D4011682B40214202D047
:101CC000002B00D0012030BD6FEA11210160704768
:101CD000FFFEFFFCFDF7FFC000200140E030FCFFED
:101CE000FFFD3FFF70B55A484168491C416081685B
:101CF00011B18168491E8160AFF300800024554E08
:101D000018E006EB8405686890B1017B81B18268B8
:101D100072B1521E826069680AD1486909698847B0
:101D20006868016881606868416809B900210173C9
:101D3000641CE4B23078A042E3D870BD4648016824
:101D40004FF47A70B1FBF0F0401EB0F1807F12D2F8
:101D50004FF0E0225061414BF02083F8140D002039
:101D60009061072010613E48B1FBF0F13848C16036
:101D7000012101707047FEE735480078002805D042
:101D80004FF0E020016941F00201016170474FF01E
:101D9000E020016921F00201016170472DE9F0475F
:101DA0002C4C0546DDF8209020781E4617468846C4
:101DB000052802D30020BDE8F087182005F0EEF9D1
:101DC0000028F8D00560C0E901850773C0E90469FF
:101DD000217804EB810148602178491C2170EAE7F1
:101DE0001C4B30B400211A7806E003EB81046468D0
:101DF000844203D0491CC9B28A42F6D88A4218D01C
:101E000003EB81004068EFF3108472B605E003EB4A
:101E10008102491C9568C9B255601A78521E8A42DF
:101E2000F5DC1978491E197004B962B630BC05F0AA
:101E30008DB930BC704700210173704701210173D7
:101E4000704701688160704741607047016070476A
:101E500010000020F8010020D80100200FE000E071
:101E6000C0C62D00FE4A0146904200D10020FD4A26
:101E7000914200D10220FC4A914200D10120FB4A4C
:101E8000914200D10420FA4A914200D10520F94A3A
:101E9000914200D10620704770471CB508220321EB
:101EA00040B101280DD0032803D10821F148FFF7E4
:101EB000F3FF1CBDCDE9001201230022C021EE4832
:101EC00006E0CDE90012012300224FF48441EB48E3
:101ED00000F06DFB1CBD7CB530B1032803D1082197
:101EE000E348FFF7D9FF7CBD082503240123002226
:101EF0001903E148CDE9004500F059FB0123002218
:101F00000421DF48CDE9004500F051FB7CBD1CB544
:101F10000822032140B101280DD0032803D1082154
:101F2000D248FFF7B9FF1CBDCDE900120123002202
:101F30000321D44806E0CDE90012012300224FF42A
:101F40004061CD4800F033FB1CBD1CB507220323C4
:101F5000990250B101280ED0022812D0032803D1D3
:101F60000721C148FFF798FF1CBDCDE900320123CE
:101F70000022C5480CE0CDE9003201230022BE4812
:101F800006E0CDE90032012300224FF44071BC4845
:101F900000F00DFB1CBD1CB50722032140B1012838
:101FA0000DD0032803D10721AE48FFF775FF1CBDF4
:101FB000CDE90012012300220C21B24805E0CDE951
:101FC0000012012300226021AD4800F0F0FA1CBD90
:101FD0001CB50722032140B101280ED0032803D1EC
:101FE00007219F48FFF758FF1CBDCDE900120123D0
:101FF00000224FF4C061A34805E0CDE9001201239F
:102000000022C021A04800F0D2FA1CBD944A01462B
:10201000904200D19D48934A914201D19B48103093
:10202000914A914201D199482030904A914201D180
:10203000964830308E4A914201D1944840308D4AC2
:10204000914201D19148503070472DE9FF4F87B040
:102050009A46DDE914B913460446DDF85C80FFF7C3
:10206000D5FF05467E488A4F0193844209D13868DE
:1020700040F0100038600898FFF7AAFF25208DF87F
:102080000000834E7748361F844209D1306840F4FF
:10209000003030600898FFF77EFF26208DF80000A2
:1020A0007148844209D1306840F48020306008983B
:1020B000FFF74BFF27208DF800006C48844209D1C0
:1020C000306840F4002030600898FFF720FF34208B
:1020D0008DF800006648844209D1306840F48010D1
:1020E00030600898FFF7F7FE35208DF80000614852
:1020F000844209D1386840F0200038600898FFF722
:10210000CCFE47208DF800002046FEF7F7FB0126A5
:102110008DF8036006208DF801002046FFF7A2FE2F
:102120008DF802006846FEF750F81698ADF80A00E0
:10213000ADF80EB0ADF810A0ADF80C90ADF8088079
:102140000020287340F6FF700590411E059101D3D1
:102150000846FAE701A92046FEF715FCA08940F0E1
:102160002000A0812E73A08940F40050A0810BB004
:10217000BDE8F08F2DE9FF410446394800250C26C3
:1021800017468846844206D1CDE9006502950023B2
:102190000395FFF75AFF3348844208D1CDE9006523
:1021A000029500233A4641460395FFF74EFF2E481D
:1021B000844208D1CDE90065029500233A464146A4
:1021C0000395FFF742FF2948844208D1CDE9006515
:1021D000029500233A4641460395FFF736FF24480F
:1021E000844208D1CDE90065029500233A46414674
:1021F0000395FFF72AFF1F48844208D1CDE9006507
:10220000029500233A4641460395FFF71EFFBDE8BD
:10221000FF812DE9FF470446114800250C261F4683
:1022200090468946844205D1CDE900650295039523
:10223000FFF70BFF0B48844208D1CDE900650295FA
:102240003B46424649460395FFF7FFFE0648844257
:1022500023D1CDE9006502953B464246494619E047
:10226000001001400044004000480040004C004085
:1022700000500040001401400008024000180240D5
:10228000000C024000000240000402402000002038
:10229000443802400395FFF7D8FE8E48844208D1A7
:1022A000CDE9006502953B46424649460395FFF756
:1022B000CCFE8948844208D1CDE9006502953B46B1
:1022C000424649460395FFF7C0FE8448844208D140
:1022D000CDE9006502953B46424649460395FFF726
:1022E000B4FEBDE8FF8710B50023FFF78FFEC1885D
:1022F00019B902894489A2420DD0428983889A4241
:1023000001D100224281036892B29B56521C428145
:1023100009B1491EC180D8B210BD10B50C46FFF7F7
:1023200075FEC38842890DE08188914200D1002268
:102330000168895CA14201D1012010BD521C5B1EC5
:1023400092B29BB2002BEFD1002010BDF0B5164623
:102350000F4684460024FFF759FE0546C08840B169
:10236000697B6046FFF7D9FF78B9E888A988884279
:102370000BD00020F0BD6046FFF7B5FF3855697BF4
:10238000884205D0641CA4B200E0761EB442F2DBA1
:102390000021641CA0B23954F0BD00B5FFF736FE31
:1023A000C18829B901894089814201D1012000BD3C
:1023B000002000BD00B5FFF729FEC188808881425A
:1023C00001D1012000BD002000BD00B5FFF71EFEB9
:1023D0000021C1800181418100BD00B50B46FFF79E
:1023E00015FE437300BD10B50C460346FFF70EFE05
:1023F000007B00280BD007E019880906FCD59880DF
:10240000641C18880006FCD520780028F4D110BD83
:1024100070B515460E460446FFF7F8FD007B002810
:102420000DD0002309E020880006FCD5F05CA080D8
:1024300020880006FCD55B1C9BB2AB42F3D370BD79
:10244000C388828893420DD20389934201D100222E
:10245000028103890268D1540189491C0181C18824
:10246000491CC18070471E480188890603D58088B1
:10247000C1B21C48E4E770471B480088800606D5B7
:102480001948001D0088C1B216482030D8E77047AF
:1024900010480088800606D50E48001D0088C1B28D
:1024A00010483030CCE770470B480188890604D5C6
:1024B0008088C1B20B484030C2E7704707480088A7
:1024C000800606D50548001D0088C1B20548503079
:1024D000B6E77047004C0040005000400014014037
:1024E000001001402000002000480040A34908449B
:1024F000C0F38F2070472DE9F04F9A46DDE909B807
:1025000089460346FFF7F2FFC5B200204FF0030EE5
:102510000121814011EA090F28D0994E36F8154063
:102520000C4326F81540DF6844000EFA04F6B74362
:102530000BFA04FC47EA0C07DF601F6802FA04FC90
:10254000B74347EA0C071F60012A01D0022A0DD1C8
:102550005F6889B28F430AFA00F189B20F435F6066
:10256000996808FA04F4B14321439960401CC0B251
:102570001028CDD3BDE8F08F00B5FFF7B7FF0121DC
:102580008140804802681143016000BDFCB51646D9
:10259000DDE907C50C00074608D0FFF7EDFFCDE9E0
:1025A00000C5324621463846FFF7A5FFFCBD2DE9A0
:1025B000FC4F9946DDE90BB792460D00064622D046
:1025C000FFF7DAFF002201214FF00F0C01FA02F0B1
:1025D00028420DD0D00806EB8003186A5407E40E99
:1025E0000CFA04F820EA080007FA04F42043186201
:1025F000521C102AEAD3CDE9009B534602222946F9
:102600003046FFF778FFBDE8FC8FF0B50E46054673
:10261000FFF76CFF00225A49C4B24FF0010C0327A8
:102620000CFA02F333420CD028684FEA420E07FA44
:102630000EFE40EA0E00286031F81400984321F89D
:102640001400521CD2B2102AEAD3F0BDF0B5002219
:102650000125032605FA02F30B4205D00468570052
:1026600006FA07F39C430460521CD2B2102AF1D33D
:10267000F0BDF0B500220127032607FA02F33C461D
:102680000B4208D00568530006FA03FC25EA0C0546
:102690009C4025430560521CD2B2102AEDD3F0BDF8
:1026A000F0B500220125032605FA02F30B4205D0FE
:1026B0000468570006FA07F31C430460521CD2B2A8
:1026C000102AF1D3F0BDF0B5002201260324022721
:1026D00006FA02F30B4209D00568530004FA03FC22
:1026E00025EA0C0507FA03F31D430560521CD2B21C
:1026F000102AEDD3F0BDF0B500230127032507FA1A
:1027000003F40C4209D0C6685C0005FA04FC26EA12
:102710000C0602FA04F42643C6605B1CDBB2102BE5
:10272000EDD3F0BD41F48032C261C161C261C169C3
:10273000C0697047002102E0491C89B240080128A5
:10274000FAD80846704700B5FFF7D0FE0121814056
:102750000C4802688A43026000BD00B5FFF7C6FE60
:10276000074931F8100000BD00B5FFF7BFFE04496E
:1027700031F81000C04380B200BD00000000FEBF71
:10278000900300203038024070B504462DED028BD6
:102790008AB0FC48B0EE408AF0EE608A0D46844272
:1027A00002D0F948844204D104200AB0BDEC028B67
:1027B00070BD694620462C6000F08EFC009803F046
:1027C00029F853EC182B03F05FF854D39FEDEF0B6F
:1027D00051EC180B53EC102B03F056F801D10220EA
:1027E000E3E7B0EE480AF0EE680A684600F0B7FC8E
:1027F0000398E8B351EC180B03F019F853EC182BBD
:102800009FEDE40BE86051EC100B02F083FF03F046
:102810000EF82861039868600498A860204600F0CC
:10282000F3FC04980026401EADF818000398ADF89C
:102830002060401E0790ADF81A608DF8226006A94E
:102840002046FEF795FA01212046FEF7EFFAD3481D
:10285000844202D0D248844203D101212046FEF7AF
:10286000F1FD208840F00100208085F8246000E020
:1028700001E0002099E7012097E71CB502004FF026
:10288000060001D005201CBD0923032259B10129EE
:10289000F9D1CDE9002300231A464902C148FFF7C8
:1028A00086FE00201CBDCDE9002300231A468021AE
:1028B000BD48F4E71CB502004FF0060001D005202A
:1028C0001CBD0923032259B10129F9D1CDE9002307
:1028D00000231A460902B348FFF769FE00201CBD19
:1028E000CDE9002300231A460221AF48F4E77CB566
:1028F0000200AE4CAE4D4FF006004FF009064FF00F
:10290000030303D0012A15D005207CBD39B101296C
:10291000FBD1CDE9003600231A46402112E0CDE973
:10292000003600231A464FF4804113E0FFF73FFEC4
:1029300000207CBD41B10129FBD1CDE90036002347
:102940001A4649022846F1E7CDE9003600231A4627
:102950004FF400412046E9E71CB502004FF00600A5
:1029600001D005201CBD032259B10129FAD10092E2
:10297000002301921A4680218A48FFF718FE0020A2
:102980001CBD0092002301921A464FF40071874843
:10299000F3E71CB502004FF0060001D005201CBD76
:1029A000032259B10129FAD10092002301921A465B
:1029B00040217C48FFF7FBFD00201CBD0092002356
:1029C00001921A464FF480717848F3E77CB5020013
:1029D000754C784D4FF006004FF0030303D0012AE9
:1029E00014D005207CBD39B10129FBD1009301939E
:1029F00000231A46202111E00093019300231A4678
:102A0000042112E0FFF7D3FD00207CBD41B1012974
:102A1000FBD10093019300231A4640212846F1E799
:102A20000093019300231A4608212046EAE77CB56B
:102A30000200614C614D4FF006004FF0030308D0D7
:102A4000012A19D0A615022A25D0032A32D0052042
:102A50007CBD39B10129FBD10093019300231A46B3
:102A600020212FE00093019300231A46402131E0FA
:102A7000FFF79DFD00207CBD39B10129FBD10093FA
:102A8000019300231A4640211CE000930193002388
:102A90001A4680211EE039B10129ECD1009301933F
:102AA00000231A4680210DE00093019300231A466B
:102AB00031460FE041B10129DDD10093019300239C
:102AC0001A4631462846D3E70093019300231A465D
:102AD0004FF400712046CBE77CB50200324D344EF6
:102AE0004FF006004FF002034FF0030407D0012A15
:102AF00018D0022A25D0032A33D005207CBD39B155
:102B00000129FBD1CDE9004300231A46890220E0C8
:102B1000CDE9004300231A46012130E0FFF747FDCD
:102B200000207CBD39B10129FBD1CDE90043002350
:102B30001A46C9020DE0CDE9004300231A460221DE
:102B40001DE041B10129ECD1CDE9004300231A4633
:102B500009033046E2E7CDE9004300231A46042189
:102B60000DE039B10129DCD1CDE9004300231A463B
:102B70001248D3E7CDE9004300231A46082128462E
:102B8000CCE70000001000400014004000000000EE
:102B9000000000000000000080842E410000014081
:102BA0000004014000140240000002400004024002
:102BB000001C0240001002400008024000200240B9
:102BC0007CB502004FF006004FF002034FF0030403
:102BD000FD4DFE4E07D0012A18D0022A25D0032A27
:102BE00033D005207CBD39B10129FBD1CDE90043AB
:102BF00000231A46090330E0CDE9004300231A46BA
:102C0000402132E0FFF7D3FC00207CBD39B101291F
:102C1000FBD1CDE9004300231A4649031DE0CDE96D
:102C2000004300231A4680211FE039B10129ECD16D
:102C3000CDE9004300231A4689030EE0CDE90043A5
:102C400000231A464FF480710FE041B10129DCD115
:102C5000CDE9004300231A46C9033046D2E7CDE947
:102C6000004300231A464FF400712846CAE72DE9B5
:102C7000FC410400D64FD44DD64E4FF006004FF025
:102C800002024FF0030308D0012C21D0022C37D0D0
:102C9000032C44D00520BDE8FC8149B101290DD0A9
:102CA0000229F8D1CDE9003200231A4649023EE05C
:102CB000CDE9003200231A46402119E0CDE9003267
:102CC00000231A46102139E0FFF771FC0020E2E7EB
:102CD00049B101290ED00229DDD1CDE9003200230E
:102CE0001A46802123E0CDE9003200231A468021D4
:102CF0003846E9E7CDE9003200231A4620211DE0DD
:102D000039B10129C7D1CDE9003200231A460902A1
:102D10000DE0CDE9003200231A4601210EE041B159
:102D20000129B8D1CDE9003200231A4649023046C4
:102D3000CAE7CDE9003200231A4602212846C3E73C
:102D40007CB50200A24D4FF006004FF001034FF09A
:102D5000030408D09C4E012A20D0022A2DD0032A39
:102D60003AD005207CBD49B101290DD00229F9D105
:102D7000CDE9004300231A4689033CE0CDE9004336
:102D800000231A46012136E0CDE9004300231A460C
:102D9000202130E0FFF70BFC00207CBD39B1012978
:102DA000FBD1CDE9004300231A4608211CE0CDE900
:102DB000004300231A4602211DE039B10129ECD15C
:102DC000CDE9004300231A4689020DE0CDE9004316
:102DD00000231A4604210EE041B10129DDD1CDE9DD
:102DE000004300231A46C9023046D3E7CDE9004329
:102DF00000231A4608212846CCE72DE9FC418C46E1
:102E00000200734D744E4FF006004FF001034FF077
:102E100003044FF4007108D04F00012A1BD0022A8E
:102E20002AD0032A3BD0052035E7BCF1000F07D09C
:102E3000BCF1010FF8D1CDE9004300231A463AE076
:102E4000CDE9004300231A464FF480713BE0FFF7C1
:102E5000AEFB00201FE7BCF1000F08D0BCF1010F52
:102E6000E2D1CDE9004300231A46394623E0CDE9FB
:102E7000004300231A4626E0BCF1000F09D0BCF144
:102E8000010FD1D1CDE9004300231A464FF4005180
:102E900011E0CDE9004300231A46394613E0BCF1A6
:102EA000000F0AD0BCF1010FBED1CDE900430023D1
:102EB0001A464FF480413046C9E7CDE9004300236C
:102EC0001A464FF400612846C1E70B4600684349A3
:102ED000884202D1114618468FE7B0F1804F05D0E5
:102EE0003F49884205D111461846C0E611461846AA
:102EF00026E73C49884202D11146184660E63A4925
:102F0000884202D111461846E6E53849884202D186
:102F1000114618468BE53649884202D111461846BB
:102F200054E53449884202D11146184631E5324908
:102F3000884202D1114618460EE53049884202D136
:102F400011461846D3E42E49884202D1114618464C
:102F5000B0E42C49884202D1114618468DE4042081
:102F6000704730B504464068154685B0A84202D87F
:102F7000032005B030BD70200222ADF80000ADF88E
:102F80000C20012004EB81020295ADF8020055618E
:102F90000A1E00FA01F0C0B206D0012937D002297A
:102FA00047D0032A68D156E094F8241001420AD190
:102FB000014384F8241069462068FDF75BFF08216F
:102FC0002068FEF798F81FE000040240000C024061
:102FD00000000240000802400010024000000140D2
:102FE0000004004000080040000C004000040140C4
:102FF00000400140004401400048014000180040EA
:10300000001C0040002000402068456334E094F834
:10301000241001420AD1014384F824106946206833
:10302000FDF754FF08212068FEF76BF820688563E0
:1030300022E094F8241001420AD1014384F82410BC
:1030400069462068FDF77EFF08212068FEF763F8D7
:103050002068C56310E094F8241001420AD10143AE
:1030600084F8241069462068FDF7A6FF082120682F
:10307000FEF757F82068056400207AE710EE102A62
:10308000144B9A4201DD426805E0B5EEC00AF1EE4C
:1030900010FA01D8002264E74268521E00EE902A1E
:1030A0006423F8EE600A20EE800ABCEEC00A10EE3F
:1030B000102AB2FBF3F2EEE730B40369934202D276
:1030C00030BC032070474468641E5443B4FBF3F2E1
:1030D00030BC46E70000C8427FB504460D4668464E
:1030E000FDF79AF94FF6FF70A860B4F1804F02D057
:1030F000AC498C4205D1039828604FF0FF306860DE
:1031000028E0A9498C420BD0A8498C4208D0A84994
:103110008C4205D0A7498C4202D0A7498C4201D1EC
:10312000019915E0A5498C4211D0A5498C420ED0D9
:10313000A4498C420BD0A4498C4208D0A3498C42AC
:1031400005D0A3498C4202D0A2498C4205D10399F3
:10315000C5E90010002004B070BD0220FBE72DE996
:10316000F04704462DED028BB0EE408AF0EE608A07
:103170000025006802F04EFB53EC182B02F084FB94
:1031800007D22561E56003206561BDEC028BBDE8D7
:10319000F0879FED910B51EC180B53EC102B02F0C4
:1031A00073FB03D12561E560656124E06068B0F5DB
:1031B000803F01D2401C60602561D4E90186276808
:1031C000A946761C6D1CB7FBF5F002F023FB53EC0F
:1031D000182B02F09FFA02F02AFBC4E903054045D0
:1031E00001D9B542EED9B54207D9C4F81090C4F858
:1031F0000C90C4F814900420C7E751EC180B02F0AF
:1032000016FB60610020C0E76749754A884203D118
:10321000116841F0010111607149091FB0F1804F3F
:1032200055D0664B984203D10B6843F002030B6004
:10323000634B984203D10B6843F004030B60594B76
:10324000984203D10B6843F008030B605D4B984232
:1032500003D10B6843F010030B605B4B984203D122
:103260000B6843F020030B60504B984203D1136866
:1032700043F0020313604E4B984203D1136843F4AA
:10328000803313604B4B984203D1136843F40033EF
:103290001360494B984203D1136843F480231360B1
:1032A0004A4A904203D10A6842F040020A60484A02
:1032B000904203D10A6842F080020A60454A904277
:1032C00003D1086840F480700860002070470868E7
:1032D00040F00100F8E73449414A884203D11168BF
:1032E00021F0010111603E49091FB0F1804F55D016
:1032F000324B984203D10B6823F002030B60304B32
:10330000984203D10B6823F004030B60254B9842CD
:1033100003D10B6823F008030B602A4B984203D1BA
:103320000B6823F010030B60274B984203D10B6806
:1033300023F020030B601D4B984203D1136823F048
:10334000020313601A4B984203D1136823F48033AD
:103350001360184B984203D1136823F400331360B1
:10336000154B984203D1136823F480231360174A46
:10337000904203D10A6822F040020A60144A904247
:1033800003D10A6822F080020A60124A904203D1F7
:10339000086820F48070086000207047086820F0FA
:1033A0000100F8E7000C004000000140000401406B
:1033B000004001400044014000480140000400403A
:1033C00000080040001000400014004000180040B9
:1033D000001C004000200040000000000000000031
:1033E00044380240784A10B51823904202D2774AF6
:1033F000774C03E0744A744C083A64422044B0FBB2
:10340000F3F0042801D3001F121D724B01F03D019F
:10341000185C8140116010BD3D21E3E76A49182224
:10342000884203D269496A4B083903E06649664B12
:1034300010395B421844B0FBF2F0042801D3001F9E
:10344000091D0968634A105CC14001F03D007047E6
:1034500038B504463D21FFF7C5FF5E4A5A4B182098
:10346000121D01219C4207D2594B8DF801102344B3
:10347000B3FBF0F0125C08E0534B8DF801105B4297
:103480002344B3FBF0F00244127A8DF800208DF84B
:1034900003108DF802006846FCF797FE206840F0A4
:1034A0001E002060606940F08000606138BD10B58A
:1034B00004463D21FFF796FF4648434A1821001D68
:1034C000944201D2424A01E03F4A52422244B2FBB6
:1034D000F1F14056012100F01F02914040098000A7
:1034E00000F1E020C0F88011206820F01E0020606C
:1034F000606900F08000606110BD704770477047E0
:103500007047704770B505463D21FFF787FF84B2CD
:103510003D212846FFF766FFA00605D52868C006AE
:1035200002D52846FFF7E9FFE00605D52868000721
:1035300002D52846FFF7E2FF200705D52868400797
:1035400002D52846FFF7DBFF600705D5286880070E
:1035500002D52846FFF7D4FFE00705D068690006CA
:1035600002D52846FFF7CDFF70BD18480830C9E7DF
:1035700016482030C6E715483830C3E713485030A6
:10358000C0E712486830BDE710488030BAE70F48FE
:103590009830B7E70D48B030B4E70B48B2E70A48B7
:1035A0001830AFE708483030ACE707484830A9E7A3
:1035B00005486030A6E704487830A3E70248903019
:1035C000A0E70148A8309DE710640240086002406F
:1035D000F09FFDBF0872000870477CB504250124E8
:1035E00040B1012813D0032803D10421FD48FFF77F
:1035F000F3FF7CBD01231A461902FB48CDE90045C3
:10360000FEF7D5FF01231A465902F84804E00123CA
:10361000F7481A464FF4C071CDE90045FEF7C7FFE1
:103620007CBD1CB50421012248B101280FD002281D
:1036300014D0032802D1EF48FFF7CEFF1CBDCDE91F
:10364000002101231A464FF44061EB480CE0CDE91C
:10365000002101231A460321E84805E0CDE90021B5
:1036600001231A463021E248FEF7A1FF1CBD1CB51C
:103670000421E14C012248B101280DD0022812D0CA
:10368000032802D1DE48FFF7A7FF1CBDCDE90021CA
:1036900001231A46C0210CE0CDE9002101231A467E
:1036A0004FF4407105E0CDE9002101231A464FF4A3
:1036B00010712046FEF77BFF1CBD2DE9FF47154624
:1036C0000446CF4A0026CF48CF4F4FF480484BF6F0
:1036D000FF7994420CD1026842F40012026008465D
:1036E000FFF7C5FF3868A84200D93D6038681EE082
:1036F000C04A94420CD1026842F48002026008463B
:10370000FFF78FFF7868A84200D97D6078680EE0E7
:10371000B44A944216D1026842F40002026008469C
:10372000FFF75BFFB868A84200D9BD60B868ADF884
:103730000460ADF808600090ADF80C80ADF80A6048
:10374000ADF80690208820F00100208069462046D0
:10375000FDF78AFF208840F001002080BDE8FF8748
:1037600070B50446008820F480602080208840F4F2
:1037700000702080A44D44F620602D1FA34E2860C9
:1037800003E02A68521E2A6008D031462046FEF720
:10379000B5F80028F5D0208AC0B270BD012070BDF8
:1037A00070B50446008840F480702080964D44F641
:1037B00020662D1F2E6003E02868401E28602AD056
:1037C000A08AC007F8D01BB1208840F48060208018
:1037D0005AB921F0010020822E6003E02868401EC3
:1037E000286018D0A08A8007F8D5012A10D141F0AE
:1037F000010020822E60854E3E3E03E02868401E78
:10380000286008D031462046FEF778F80028F5D029
:10381000208B002070BD012070BD7B4A44F62061E2
:10382000121F116003E01168491E11600BD0818ADC
:103830000906F8D5818A4907F5D5018841F4007158
:10384000018000207047012070476F4B44F62062D2
:103850001B1F1A60828A120603D41A680AB1521E0C
:10386000F7E70182704770B5164600230C460546FF
:103870001A46FFF795FF31462846FFF7E6FF284630
:10388000FFF7CBFF0023012221462846FFF788FFE0
:103890002846BDE8704063E770B50546008840F4EF
:1038A00080602880584C44F62060241F574E2060CA
:1038B00003E02268521E226008D031462846FEF7F7
:1038C0001DF80028F5D0288AC0B270BD012070BD57
:1038D0002DE9F0411D4616460C4680460123002284
:1038E000069FFFF75DFF31464046FFF7AEFF01231D
:1038F0001A4621464046FFF753FF00247E1E0AE089
:10390000B442404602D1FFF72BFF01E0FFF7C4FFAE
:103910002855641CE4B2BC42F2D3BDE8F08110B576
:10392000012304461A46FFF73BFF2046BDE810403E
:1039300016E72DE9F0411E461546012380461A463A
:10394000FFF72EFF0024771E0AE0BC42404602D15A
:10395000FFF706FF01E0FFF79FFF2855641CE4B264
:10396000B442F2D3D9E770B51D461646002304468B
:103970001A46FFF715FF31462046FFF766FF294636
:103980002046FFF762FF2046BDE8704045E72DE97D
:10399000F0411D461446002307461A46069EFFF7CF
:1039A000FFFE21463846FFF750FF002405E0295D61
:1039B0003846FFF74AFF641CE4B2B442F7D33846F6
:1039C000BDE8F04129E770B51546002304461A46C4
:1039D000FFF7E6FE29462046FFF737FF2046BDE801
:1039E00070401AE7005C00400000024000080240FE
:1039F000001C024000580040000402400014024035
:103A00000054004040380240840000204000030081
:103A10002DE9F0411D461646002307461A46FFF7DA
:103A2000BFFE002405E0315D3846FFF70EFF641C41
:103A3000E4B2AC42F7D33846BDE8F041EDE670B5EC
:103A40000024054601232246FFF7AAFE00B90124FF
:103A50002846FFF7E2FE204670BD000010B58AB090
:103A60000446002001218DF81410C54A8DF8050088
:103A7000C4490490039002908DF80400944205D14B
:103A80000A6842F480720A60009010E0BE4B4FF06A
:103A900080729C4203D10B6843F4007305E0BB4B7A
:103AA0009C4204D10B6843F480630B600092089041
:103AB00006904FF4803007904FF44070099006A8AC
:103AC000FDF79DFF69462046FDF76EFFA06840F0B8
:103AD0000100A0600AB010BD1CB501230222CDE98F
:103AE000002300230322FEF751FD1CBDA449884298
:103AF00002D0A549884202D12021A54804E0A3496B
:103B0000884202D12021A348E6E7704710B5044659
:103B10009B48844202D09C48844203D110219C4897
:103B2000FFF7DAFF9948844204D1BDE81040102124
:103B30009848D1E710BD08219548CDE70421944865
:103B4000CAE702219248C7E701219148C4E710B5AE
:103B500004468B48844202D08B48844203D1022120
:103B60008D48FFF7B9FF8948844204D1BDE8104071
:103B700008218848B0E710BD10B50446804884424B
:103B800002D08148844203D101218348FFF7A4FF7A
:103B90007E48844204D10115BDE810407D489BE772
:103BA00010BD10B504467648844202D0764884425F
:103BB00003D180217948FFF78FFF7448844204D1F4
:103BC0004115BDE81040734886E710BD10B50446A6
:103BD0006B48844202D06C48844203D140216F4834
:103BE000FFF77AFF6948844204D18115BDE810408F
:103BF000684871E710BD10B504466148844202D0A0
:103C00006148844203D120216448FFF765FF5F4883
:103C1000844204D1BDE8104080215E485CE710BDBD
:103C200010B504465648844202D05748844203D116
:103C300010215A48FFF750FF5448844204D1BDE890
:103C400010404021534847E710BD0821534843E73F
:103C50000421524840E7022150483DE701214F48E6
:103C60003AE710B504464D48F9B101291FD00229A1
:103C70001FD003291FD0042921D0052923D00629CC
:103C800025D0072927D0082929D009292BD0404839
:103C90000A290AD00B290AD00C290AD00D290AD0EA
:103CA0000E2924D00F2926D028E0012104E002218A
:103CB00002E0042100E00821FFF70EFF1EE020468D
:103CC000FFF7AEFF1AE02046FFF795FF16E020460B
:103CD000FFF77CFF12E02046FFF763FF0EE020466F
:103CE000FFF74AFF0AE02046FFF731FF06E02046D3
:103CF000FFF70CFF02E02046FFF7F8FE2046BDE884
:103D00001040ABE670B50123054640F6FF741A4635
:103D1000FDF7BFFEA86840F08040A86002E02046A2
:103D2000641E04D328688007F9D5E86C80B270BDA2
:103D30001348D0F8041341F48001C0F8041370470D
:103D40000F48D0F8041321F48001C0F80413704721
:103D500010B50446052301221221FDF79AFEA06842
:103D600040F08040A06020688007FCD5E06C4FF4F4
:103D7000C351484340F6FF71B0FBF1F080B210BD73
:103D8000002001404438024000210140002201404F
:103D900000080240001402400004024000000240FB
:103DA0002DE9FE4F164683460C004FF0010A02D063
:103DB000601E014212D00025574607FA05F0204246
:103DC00005D081B232465846FFF7EAFFB8BB6D1CFA
:103DD000EDB2102DF1D30020BDE8FE8FDFF8F082A8
:103DE000D8F80000204234D108F10409D9F80000C5
:103DF00020422ED1B4F5807F37D012DC102C32D087
:103E000008DC012C27D0022C27D0042C27D0082C2A
:103E10001FD126E0202C28D0402C26D0802C18D171
:103E200023E0B4F5805F22D00ADCB4F5007F1CD01B
:103E3000B4F5806F1BD0B4F5006F0AD117E008E02D
:103E4000B4F5005F13D0B4F5804F10D0B4F5004F37
:103E50000DD00120C0E706250AE0072508E0082567
:103E600006E0092504E00A2502E0172500E02825E0
:103E7000012E51D0F6B300200021CDE900010B4600
:103E80000A4621465846FEF781FB2046FEF752FCC3
:103E9000C7B25846FEF72AFBC2B28E48016841F409
:103EA000804101608C4827F003010844D0F80838AD
:103EB000B907090F4FF00F0C0CFA01FC23EA0C03B1
:103EC000C0F80838D0F808388A401343C0F80838DA
:103ED000D8F80010A143C8F80010D9F80020A24378
:103EE000C9F80020D8F800102143C8F8001078481D
:103EF0000C3000E012E00168A1430160011F0A6874
:103F0000A2430A60012E0BD016B102682243026060
:103F100008682043086006E00120ADE70220ABE717
:103F20000168214301608DF808500A208DF80900CE
:103F30008DF80A708DF80BA002A8FCF746F94AE745
:103F400063490A6882430A60091D0A6882430A605D
:103F50005F490C310A6882430A60091F0A6882437C
:103F60000A60002070475A4801686FF30F01016032
:103F7000001D01686FF30F01016055480C300168A6
:103F80006FF30F010160001F01686FF30F01016003
:103F90004F48143001686FF30F01016070474C48BF
:103FA00010B514300168C90704D00121016008462A
:103FB00000F0E4FA10BD464810B5143001688907D6
:103FC00004D502210160084600F0D8FA10BD40482F
:103FD00010B514300168490704D504210160084672
:103FE00000F0CCFA10BD3A4810B51430016809074A
:103FF00004D508210160084600F0C0FA10BD34481D
:1040000010B514300168C90604D5102101600846B6
:1040100000F0B4FA10BD10B52D4C143420688006A1
:1040200003D52020206000F0A9FA2068400603D5BF
:104030004020206000F0A2FA2068000603D580200E
:10404000206000F09BFA2068C00504D54FF4807012
:10405000206000F093FA2068800504D54FF40070CA
:10406000206000F08BFA10BD10B5194C1434206894
:10407000400503D52015206000F080FA2068000577
:1040800004D54FF40060206000F078FA2068C00486
:1040900004D54FF48050206000F070FA206880044E
:1040A00004D54FF40050206000F068FA2068400406
:1040B00004D54FF48040206000F060FA20680004CE
:1040C00004D54FF40040206000F058FA10BD000005
:1040D000003C014044380240003001402DE9FC41E1
:1040E000534D16460C460746504A02212846FFF714
:1040F000E4FA3C212846FFF7A2FC40B1012210213E
:104100004C48FFF74DFE20B10120BDE8FC810220A4
:10411000FBE746F030008DF8040000208DF80540E4
:104120008DF806000326024601AB3C212846009686
:10413000FFF72DFC3B460A223C2128460096FFF75C
:10414000C7FB3D4814F01F0F23D16111082920D26D
:10415000DFE801F004070D101316191C9FED370A54
:1041600001E09FED370A80ED010A0020CDE79FEDC9
:10417000350AF8E79FED340AF5E79FED340AF2E7D8
:104180009FED330AEFE79FED330AECE79FED320A2C
:10419000E9E7B7EE000AE6E72748007808B1002013
:1041A0007047012070473EB5234D04462878A0B3E0
:1041B0000620009001AB03223C211D48FFF788FB3D
:1041C000BDF8040040BA00B200EE100AF8EEC00AD2
:1041D000C4ED010ABDF8060040BA00B200EE100AB4
:1041E000B8EEC01A84ED031ABDF8080040BA00B258
:1041F00000EE100A0020F8EEC01A95ED010A60EEFC
:10420000800AC4ED010A61EE000A21EE800AC4EDC5
:10421000030A84ED020A28703EBDFFE70120FBE798
:10422000054901200870002070470000801A060030
:104230000054004000080240900000200681953D97
:104240001F856B3FF6289C3F5C8FC23FAE471140F5
:104250000AD7234085EB414033338B4010B50F2103
:10426000F748FFF74FFD00EE100AF649F64AB8EEA0
:10427000C00A086310EE100A81ED0D0A904203DDBA
:104280009FEDF20A81ED0D0ADFEDF10A20EE200A22
:1042900010BD10B510222021EE48FFF71FFFEE4A97
:1042A00020B1EEA11046FEF79EF8FEE7BDE81040F3
:1042B000EFA11046FEF797B82DE9F04F2DED068BD4
:1042C0008BB0DFEDF29AF0EE69AAB0EE69AA9FED2D
:1042D000F08AB0EE489AF0EE488ADE48FFF75CFFBD
:1042E00000287FD1DB48FFF75EFFDA4890ED011A26
:1042F000B4EEC91AF1EE10FA01D2B0EE419AD0ED47
:10430000020AF4EEE80AF1EE10FA01D2F0EE608A49
:1043100090ED030AB4EEC80AF1EE10FA01D2B0EE45
:10432000408AB4EEEA1AF1EE10FA01DDF0EE41AA8D
:10433000F4EECA0AF1EE10FA01DDB0EE60AAB4EEB6
:10434000E90AF1EE10FA01DDF0EE409ABD48D0ED39
:10435000111A31EE211A80ED111A90ED121A70EE39
:10436000810AC0ED120AD0ED130A30EE200A80ED6A
:10437000130A18EE100A01F073FA8046894618EE07
:10438000900A01F06DFA06460F4619EE100A01F088
:1043900067FA04460D4619EE900A01F061FACDE97C
:1043A00000011AEE100A01F05BFA82468B461AEE03
:1043B000900A01F055FA41EC100B04A853EC102BB5
:1043C00080E8F003DDE90001CDE9020100E009E049
:1043D000B0A1BA48CDE900AB01F0D0FEB7499E4884
:1043E000FEF701F897488038406A64287FF475AF7B
:1043F0009448D0ED110A9FEDB20AB2A180EE801A66
:1044000080ED111AD0ED120A80EE801A80ED121A9A
:10441000D0ED130A80EE801A80ED131A8E48FDF756
:10442000E2FF4FF47A7000F002FF864800218038E6
:1044300041620BB0BDEC068BBDE8F08F10B5814C2E
:104440002DED028B206D01F00BFA41EC180B606D25
:1044500001F006FA41EC100BB0EE481AF0EE681AC3
:1044600002F02AF851EC100B01F026FA00EE900A47
:104470009FEDA00A84ED0F0A30EE800A84ED100A49
:10448000DFED9D0AB5EEC00AF1EE10FA03D230EE70
:10449000200A84ED100A10EE100A9849884203DDC4
:1044A00030EE600A84ED100ADFED950A20EE200A56
:1044B00010EE100A01F0D4F99FED921B53EC112B72
:1044C00001F028F901F0F8F900EE100A84ED0E0A67
:1044D000DFED8E0AB5EEC00AF1EE10FA02D230EE30
:1044E000200A06E010EE100A8949884203DD30EE0A
:1044F000600A84ED0E0ABDEC028B10BD854810B534
:104500000068504C803CA168401A322835D351488D
:10451000FFF742FE002830D14E48FFF744FE94EDED
:104520000A0A94ED0D1A4B48464930EE011AD0EDB7
:10453000010AB6EE000A41EE400AC1ED140A94EDFC
:104540000B1AD4ED0E1AD0ED020A31EE211A41EE0B
:10455000400AC1ED150A94ED0C1AD4ED0F1AD0EDF6
:10456000030A31EE211A41EE400AC1ED160AFFF7A7
:1045700065FF04F1880080ED000A10BD102802D10B
:104580003448FFF74DBE70472E48083090ED000AC2
:10459000B5EEC00AF1EE10FA03D15FA12E48FDF787
:1045A00022BF70471CB501210846FBF7CAFF012056
:1045B0008DF8040002218DF8051000218DF80610F9
:1045C0008DF807002E20009069465648FCF7FCF84D
:1045D0001CBD10B59FED540B1E494FF0804028398B
:1045E000FEF7D2F81B48012211462838FEF76DFC71
:1045F000184802220021BDE810402838FEF765BCAB
:1046000070B5484D4C0088B1012818D120212846AA
:10461000FCF741F908212846FCF73BF92246BDE8A2
:1046200070400C4800212838FEF746BD202128465E
:10463000FCF72FF908212846FCF72DF9EEE777E083
:10464000002001401801002000C05A4500C05A4512
:10465000C4A6523D84060020001001400A0D484DBA
:1046600043353838334C5F4552524F5200000000FA
:104670000A0D484D43353838334C5F4F4B20524577
:1046800041445920544F205553450000000000C7B5
:1046900000FEFF460A0D252E32662C20252E32669E
:1046A0002C20252E32662C7C7C20252E32662C2058
:1046B000252E32662C20252E32660000A80300200D
:1046C0000000C8420A0D414C48414D44554C494CEC
:1046D0004C4148204B414C494252415349204B4F99
:1046E0004D50415320424552484153494C2E2E2EA5
:1046F00000000000AE47613EDB0FC940DB0FC94040
:104700000000344350455254FB2109400000B4439B
:104710000000B443140000200A0D494E56414C4994
:1047200044000000000002400000000000408F40F4
:1047300070BD70B5FE4D0C4680B1012819D1042121
:104740002846FCF7A8F802212846FCF7A2F8A200A8
:10475000BDE870400121F748FEF7AEBC04212846B1
:10476000FCF797F802212846FCF795F8C4EBC40241
:10477000EEE770BD70B5F0480022A0F18C0490ED1A
:10478000000AD4ED120AC82030EEC00A84ED180ADF
:10479000B5EEC00AF1EE10FA02D25A20E26001E052
:1047A0000121E160F1EE040AF2EE0E1A60EE200A39
:1047B00010EE103AE14DC4ED1A0A94ED191AE16EAB
:1047C000AB4230EE411A21EE211A84ED1C1A37D289
:1047D00010EE103ADA4DAB4232DADA4B994202DD92
:1047E000DFEDD91A04E0D94B994203D9DFEDD81A8D
:1047F000C4ED1B1AF6EE001AC4ED041AD4ED1B1A10
:1048000070EEA10A70EE810AFDEEE00A10EE901A39
:10481000A165002901DA4942A165814200DDA06558
:10482000B5EEC00AF1EE10FA00D1A26594F8581066
:10483000E068FFF77EFF94ED180A84ED190A70BD59
:10484000DFEDC41AD8E770B5BB48C34A001F2DED91
:10485000028BA0F18804D0ED000A94ED130AA0F1B8
:10486000080510EE900A30EE601A85ED001A9FEDF3
:10487000BB1A70EE601ABA49904231EE811A06DB1B
:1048800010EE100A884202DC85ED001A0BE010EEF3
:10489000900A884207DC10EE100A904203DBB1EE6A
:1048A000410A85ED000A95ED008A0026B5EEC08A22
:1048B000F1EE10FA02D20120606100E0666118EEAC
:1048C000100A00F0CDFF9FEDA71B53EC112B00F059
:1048D000AFFE00F0F1FF00EE900AC4ED1D0A94ED6A
:1048E0001E0A94ED061A01EE080A84ED1E0A95EDE3
:1048F000011A38EE411ADFED9D1A18EE100A8F49A1
:1049000021EE211A84ED1F1ADFED991A884224D274
:1049100018EE100A8A4988421FDA10EE100A9549EB
:10492000884202DD9FED940A06E010EE100A9349DA
:10493000884203D99FED920A84ED1E0A18EE100AF0
:10494000B0F1404F09D218EE100AB0F1804F04DAEE
:104950009FED8C0A84ED060A01E0C4ED061A94ED81
:104960001E0A30EE800A30EE010ABDEEC00A10EEDB
:10497000100AE065002801DA4042E065FA2801DD0E
:10498000FA20E06518EE100A7F49884205D218EE39
:10499000100AB0F17F5F00DAE66594F85C10606998
:1049A000FFF72EFE95ED000A85ED010ABDEC028BA6
:1049B00070BD2DE9F041604C0C3CA069022843D148
:1049C00060690025714FA4F180030246206139E03F
:1049D000B85C2C2810D0D969012913D0022915D030
:1049E000032917D0042919D005291BD006291DD069
:1049F00021DDDD61A56127E0D86900F10100C3E98F
:104A000007051CE04B49A1F15C0112E04949A1F105
:104A10004D010EE04749A1F13E010AE04549A1F1EF
:104A20002F0106E04349A1F1110102E04149A1F142
:104A300020011E6A8855186A00F10100186202F10F
:104A400001022261C82AC3D33A48113800F03CFD64
:104A5000606238485C3801F027FE51EC100B00F022
:104A60002BFFE06133483E3801F01EFE51EC100B85
:104A700000F022FF2062BDE8F0812DE9F0412E4CCC
:104A80000C3CA069022843D1606900253F4FA4F186
:104A900080030246206139E0B85C2C2810D0D96927
:104AA000012913D0022915D0032917D0042919D0C0
:104AB00005291BD006291DD021DDDD61A56127E078
:104AC000D86900F10100C3E907051CE01949A1F10B
:104AD000110112E01749A1F15C010EE01549A1F1A5
:104AE0004D010AE01349A1F13E0106E01149A1F18F
:104AF0002F0102E00F49A1F120011E6A8855186AB2
:104B000000F10100186202F101022261C82AC3D338
:104B10000848113800F0D8FC606206485C3801F0A3
:104B2000C3FD51EC100B00F0C7FEE06101482FE01F
:104B3000000002405C060020240100200000A0C00C
:104B40000000A0400000B4420000B4420000B4C223
:104B50000000B4C26666663F008084430080B343B1
:104B60000000BE42333333333333F33F0000484257
:104B7000CDCCCC3E0000F0420000F0420000F0C27C
:104B80000000F0C2CDCC4C3E0000C0BF700400203D
:104B90003E3801F089FD51EC100B00F08DFE2062D3
:104BA00069E72DE9F041F84CA069022841D160691C
:104BB0000025F64FA4F180030246206137E0B85C7F
:104BC0002C2810D0D969012913D0022913D0032928
:104BD00015D0042917D0052919D006291BD01FDDAF
:104BE000DD61A56125E0D86900F10100C3E9070591
:104BF0001AE0E74912E0E649A1F10F010EE0E449AD
:104C0000A1F14B010AE0E249A1F13C0106E0E049D3
:104C1000A1F12D0102E0DE49A1F11E011E6A8855B5
:104C2000186A00F10100186202F101022261C82A2B
:104C3000C5D3D74800F048FC6062D5484B3801F036
:104C400033FD51EC100B00F037FEE061D0482D38F9
:104C500001F02AFD51EC100B00F02EFE20620AE755
:104C600070B5C94C0020C94E022520610146705C18
:104C7000242835D170184278472A31D182784E2ABB
:104C80002ED1C278472A02D0522A1CD028E00279BD
:104C90004C2A02D0472A0BD022E040794C281FD161
:104CA000A069E8B9891DC4E90515FFF782FE17E080
:104CB0004079412814D1A06990B9891DC4E905152E
:104CC000FFF7DBFE0CE002794D2A09D14079432839
:104CD00006D1A06920B9891DC4E90515FFF761FF58
:104CE0002069401C2061C828C0D370BDFDEEC00AF9
:104CF00010B510EE901A64222DED068B91FBF2F4A4
:104D000004FB02F100EE901AF8EEE00A30EE608A41
:104D10009FEDA0AB572807D09FEDA09B4E2815D044
:104D2000452813D0532826D1204600F062FD41ECDF
:104D3000190B18EE100A00F093FD53EC1A2B00F03B
:104D4000E9FC53EC192B00F06DFC10E018EE100A92
:104D500000F086FD53EC192B00F0DCFC41EC180B45
:104D6000204600F046FD53EC182B00F0BAFB00F093
:104D7000A3FD00EE100ABDEC068B10BD70B5834993
:104D8000C822C8318748FDF7E1FA00282CD07F49B6
:104D90007E48C83100F08FFBFFF762FF7C487A4CF9
:104DA0003C38007894ED070AFFF7A0FF04F12805CE
:104DB000774885ED000A1E3894ED080A0078FFF761
:104DC00095FF281D10EE104A80ED000A286800F0BB
:104DD00047FD05F17802C2E90001204600F040FDE0
:104DE00005F18002C2E9000170BD2DE9F041664D78
:104DF0000026674BA5F1800449336E66686E195C26
:104E0000692901D1E96D39B1401C68666428F5D380
:104E1000E86D022804D02CE0401C28660220E865DA
:104E2000286E23E0195C2C290BD0226C012A0ED0AD
:104E3000022A10D014DD26644FF00100EE65A8664A
:104E400017E0216C01F10101C4E910160CE0504A91
:104E500002F1AD0202E04E4A02F1B702676CD15591
:104E6000616C01F10101616400F101006866642870
:104E7000D8D34748AD3001F017FC51EC100B00F0CF
:104E80001BFDA0644248B73001F00EFC51EC100B42
:104E900000F012FDE064444AA16C914202DC00EE95
:104EA000101A03E01FEDD80A84ED120AB5EEC00A0D
:104EB000F1EE10FA03D29FED3D0A84ED120A3C494F
:104EC000884203DD1FEDDB0A84ED130AE06CB0F1CC
:104ED0007E5F03DAB7EE000A84ED130ACBE52C49B6
:104EE00010B5642249313348FDF730FA002802D06A
:104EF000BDE8104079E710BD2DE9F041224C0026B5
:104F0000234D6667C135606F295C742901D1E16E5C
:104F100039B1401C6067C828F5D3E06E092804D079
:104F200070E0401C20670920E066206F164B0246A7
:104F3000803B606764E0A85C2C2819D0196D0129BA
:104F40001CD002291CD0032938D0042938D00529C7
:104F50003AD006293CD007293ED0082940D009295B
:104F600042D046DD1E654FF00100E666A06749E0CD
:104F7000186D00F10100C3E914063EE00E4936E069
:104F80000D4901F10A0132E01801002070040020EF
:104F90004B0600200000000000004EC00000000092
:104FA00000004E40004800400000B44200000000F5
:104FB0000080B34300100140D4070020A74916E049
:104FC000A64901F10A0112E0A44901F114010EE021
:104FD000A24901F11E010AE0A04901F1280106E001
:104FE0009E4901F13C0102E09C4901F150015F6DD5
:104FF000C855586D00F10100586502F10102626761
:10500000C82A98D39548143800F05EFAE0679348B0
:105010000A3801F049FB51EC100B00F04DFC9049AF
:1050200008608E4801F040FB51EC100B00F044FC8E
:105030008B49091D086089480A3001F035FB51ECA5
:10504000100B00F039FC86490831086083481430A1
:1050500001F02AFB51EC100B00F02EFC80490C31C2
:1050600008607E481E3000F02FFA7D4C241F20601F
:105070007A48283001F018FB04F1300080ED000B75
:1050800076483C3001F010FB04F1380080ED000B55
:105090007248503001F008FB51EC100B00F00CFC92
:1050A00004F11401086094ED000A081DB8EEC00A6E
:1050B00080ED000ADFE4694910B5C822DC3969488F
:1050C000FDF744F9002802D0BDE8104014E710BDF8
:1050D0002DE9F04F644995B00A6864490968511A8E
:1050E00081425DD35E487C38006800F0B9FB06461B
:1050F0005B480F467838006800F0B2FB0446584819
:105100000D461030006800F0ABFBCDE902015448B9
:105110000C30006800F0A4FBCDE9000150480830D5
:10512000006800F09DFB82464D488B46001D0068DC
:1051300000F096FB80464A488946006800F090FBE4
:10514000024610A80B4680E8F000DDE90201CDE937
:105150000E014348343090ED000B08388DED0C0BF8
:1051600090ED000B30388DED0A0B00680890DDE9FA
:105170000001CDE906018DE80C0F3C483CA18030D0
:10518000C26F484800F0FAFF464800F08DF982B23D
:1051900044494548FDF73CF933480168334801600C
:1051A00015B0BDE8F08F00F012F9FCF7C7FD3E4DD9
:1051B0004FF46144224600212846FCF7DBFF2246DB
:1051C00002212848FCF7D6FFFFF7ECF9FFF701FAB8
:1051D0000F213648FEF745FDFFF75BF834A128465E
:1051E000FDF701F94FF4FA6000F021F81C4E1E4D56
:1051F000783E1E4CFFF75FFFFFF7C0FDFFF77EF91B
:10520000FFF72CF886ED000AFFF7BEF9FFF767FEFF
:1052100028686168401A322805D3FFF7ABFAFFF718
:1052200012FB286860606420FFF752FFE2E70E4936
:1052300008B50A680092EFF3058242B14FF0E02111
:10524000002809D00A69D203FAD5401EF8E70A6897
:10525000009BD21A8242FAD308BD0000E807002062
:105260009C0100200048004014000020980000200D
:1052700025642C252E32662C252E32662C252E32C6
:10528000662C252E32662C25642C25662C25662C52
:10529000252E32662C252E32662C252E32660A0DDE
:1052A00000000000A8030020001001400020014081
:1052B0000A0D4249534D494C4C41482053595354CF
:1052C000454D2045465249534120545241434B4598
:1052D00052204D454D554C41492E2E2E20000000A8
:1052E0007047FEE7FEE7FEE7FEE77047704770474E
:1052F00070470D4908B50A684FF001000092EFF3BE
:10530000058252B14FF0E0210A69D20300D5401E58
:105310000028F9D1FCF7E6FC08BD0A68009BD21A08
:105320008242FAD3F6E70000140000200CB50022F8
:10533000544900920192086840F4803008604FF4AC
:10534000A043086800F4003001900098401C0090D1
:10535000019810B900989842F3D10868800334D5B9
:105360000120019047484030026842F080520260BC
:105370004548026842F440420260424808300268F0
:105380000260026842F400420260026842F4A052E5
:105390000260031F3D4A1A600A6842F080720A6088
:1053A0000A689201FCD53A4940F205720A60016828
:1053B00021F003010160016841F002010160016810
:1053C000C1F381010229FAD10CBD01920CBD314813
:1053D00010B5016841F4700101602A48016841F08C
:1053E00001010160274A00210832116002682A4B3E
:1053F0001A400260031D294A1A60026822F48022C2
:10540000026020480C300160FFF790FF21494FF007
:1054100000608039086010BD70B51A4D08352868E5
:105420001F4B204910F00C0004D05E10042803D05C
:10543000082803D00B601BE00E6019E0114A121D12
:105440001068C0F38054106800F03F0014B1B6FB40
:10545000F0F001E0B3FBF0F013681268C3F38813B7
:105460005843C2F30142521C5200B0FBF2F00860F4
:1054700028680C4AC0F30310121D105C0A68C24071
:105480000A6070BD003802400070004008544007B8
:10549000003C024088ED00E0FFFFF6FE10300024E3
:1054A0000024F400D8010020421C10F8011B002940
:1054B000FBD1801A7047034611F8012B00F8012B2D
:1054C000002AF9D11846704770B5064600F082FEF2
:1054D000046805460A220021304600F0CFFA2C600D
:1054E00070BD2DE9FE4F804681EA0300C00F0C46D7
:1054F000009021F0004123F00045B8EB0200A941E3
:1055000005D24046214690461C460B46024623F0F3
:105510000040104347D0270DC7F30A00C3F30A51D8
:105520000290401A019040286BDAC3F3130040F454
:10553000801B0098924620B10023D2EB030A63EB54
:105540000B0B01985946C0F14002504600F017FA83
:1055500006460D4650465946019A00F02FFA10EBC8
:1055600008006141002487EA115284EAE7731A4374
:1055700040D0009A62B3019A012A4FEA075215DC23
:10558000001B61EB02014FF0004202EA0752CDE935
:105590000042001C41F5801132462B4600F0ECFA27
:1055A00003B0BDE8F08F40462146F9E7001B61EBF0
:1055B0000201001C41F5801300185B412018A2F580
:1055C000001747EB030140EAD570B6196D4111E0B1
:1055D0006D084FEA360645EAC0754FEA0752001BD0
:1055E00061EB0201001C41F5801149084FEA3000CF
:1055F0000019514132462B4603B0BDE8F04F00F090
:10560000ACBA0098012240000023D0EB020263EB09
:10561000E073009821464FEAE074B8EB000061EBBC
:105620000401E9E783F000435BE781F0004158E7BC
:105630002DE9FE4F81EA030404F0004421F000410B
:1056400000944FF0000B23F0004350EA01045ED0B9
:1056500052EA03045BD0C3F30A54C1F30A552C4445
:10566000A4F2F3340194A0FB0254C1F3130141F4FA
:105670008011C3F3130343F4801301FB024400FBC6
:10568000034E840A970A44EA815447EA8357A4FBED
:10569000076802958D0A05FB07854FEA932C04FBEA
:1056A0000C542705029D4FEA065847EA1637B5EB1A
:1056B00008056EEB070C870E920E47EA811742EA47
:1056C0008312A7FB0201B6EB0B0164EB00042B0D68
:1056D00043EA0C335E1844EB1C50DA465146E7FBB4
:1056E0000201C5F313044FEA0B3343EA14534FEAA4
:1056F0000432019C43EA0603A4F10C040294009CCA
:10570000CDE900B400F038FA03B0BDE8F08F002016
:105710000146F9E72DE9F04D81EA030404F0004B5E
:1057200021F0004514464FF0000A23F0004150EAF2
:10573000050220D054EA01021DD0C5F30A570246E3
:10574000C5F31303C1F31300C1F30A5640F48015E7
:1057500043F48013A7EB0608101BD64608F2FD3869
:1057600073EB050002D308F1010801E092185B41D8
:10577000B8F1000F03DA00200146BDE8F08D0020EB
:105780004FF48011064684460EE0171B73EB0507A5
:1057900005D3121B63EB050306434CEA010C4908D1
:1057A0004FEA300092185B4150EA0107EDD152EA0E
:1057B000030012D082EA040083EA0501084305D001
:1057C000101BAB4106D20122002306E000224FF05D
:1057D000004302E06FF0010253101AEB06004CEB9D
:1057E000085110EB0A0041EB0B01BDE8F04D00F051
:1057F000B4B90EB5C10F80EAE0700844CA070021B1
:1058000040F233438DE80E000A460B4600F0B4F92F
:1058100003B000BD0EB540F2334102910021CDE945
:1058200000110A460B4600F0A7F903B000BDC1F312
:105830000A5210B5C1F3130140F2FF3341F4801155
:105840009A4201DA002010BD40F233439A42A2F29C
:10585000334203DC524200F0A1F810BD904010BD6D
:1058600000F0004230F000400AD0C10D01F5607137
:10587000C0F3160042EA0151C208400711437047C5
:10588000002001467047000030B5041E71F100048D
:1058900004DB4FF00044404264EB0101141E73F13D
:1058A000000405DB1C464FF00043524263EB040347
:1058B0008B4208BF824230BD01F0004330B421F07A
:1058C000004150EA010206D00A0DA2F56072C1F350
:1058D0001301002A02DC30BC00207047440F44EA68
:1058E000C104C100E01830BC00EBC25000F0FEB8AB
:1058F00030B50B46014600202022012409E021FAA0
:1059000002F59D4205D303FA02F5491B04FA02F59C
:105910002844151EA2F10102F1DC30BD2DE9F05F33
:105920000546002092469B4688460646814640240E
:105930001BE0284641464746224600F02FF85346D2
:105940005A46C01A914110D311461846224600F01B
:1059500016F82D1A67EB01084F4622460120002158
:1059600000F00DF817EB00094E41201EA4F10104D0
:10597000DFDC484631462A464346BDE8F09F202AF0
:1059800004DB203A00FA02F1002070479140C2F196
:10599000200320FA03F3194390407047202A04DBC8
:1059A000203A21FA02F00021704721FA02F3D04098
:1059B000C2F120029140084319467047202A06DBB5
:1059C000CB17203A41FA02F043EAE07306E041FACD
:1059D00002F3D040C2F120029140084319467047BB
:1059E0000FB4002300B589B00CA900910B996FF09A
:1059F0000042CB601E4B06931E4B07930423CDE958
:105A000001321D4A089202466B46002000F0E6F97A
:105A100009B05DF814FB70B586B006464FF0FF3054
:105A20000091CDE90101002015460C460490324654
:105A3000694604A8FFF7D4FF02460498211825B14F
:105A400008B1084600E020462860049800280DD0E0
:105A5000002A02DD0098884208D0081B0094CDE996
:105A600001043246694604A8FFF7BAFF06B070BDCC
:105A70001560000833600008A15C00082DE9F047BC
:105A800091460F4680460446002614F8015B2DB16E
:105A900000F002F90068405DC007F6D12B2D02D05E
:105AA0002D2D18D0641E4A463946204600F0D2FA01
:105AB00027B13968A14201D1C7F8008071054FF0C4
:105AC00002040BD54042002803DD00F083FB046094
:105AD000A007BDE8F08746F48066E4E70028F8DA1E
